{
  "_format": "hh-sol-artifact-1",
  "contractName": "Factory",
  "sourceName": "contracts/Factory.sol",
  "abi": [
    {
      "inputs": [
        {
          "internalType": "uint256",
          "name": "_fee",
          "type": "uint256"
        }
      ],
      "stateMutability": "nonpayable",
      "type": "constructor"
    },
    {
      "anonymous": false,
      "inputs": [
        {
          "indexed": true,
          "internalType": "address",
          "name": "tokenAddress",
          "type": "address"
        },
        {
          "indexed": false,
          "internalType": "uint256",
          "name": "amount",
          "type": "uint256"
        }
      ],
      "name": "Buy",
      "type": "event"
    },
    {
      "anonymous": false,
      "inputs": [
        {
          "indexed": true,
          "internalType": "address",
          "name": "token",
          "type": "address"
        }
      ],
      "name": "TokenCreated",
      "type": "event"
    },
    {
      "inputs": [],
      "name": "TARGET",
      "outputs": [
        {
          "internalType": "uint256",
          "name": "",
          "type": "uint256"
        }
      ],
      "stateMutability": "view",
      "type": "function"
    },
    {
      "inputs": [],
      "name": "TOKEN_LIMIT",
      "outputs": [
        {
          "internalType": "uint256",
          "name": "",
          "type": "uint256"
        }
      ],
      "stateMutability": "view",
      "type": "function"
    },
    {
      "inputs": [
        {
          "internalType": "address",
          "name": "_tokenAddress",
          "type": "address"
        },
        {
          "internalType": "uint256",
          "name": "_amount",
          "type": "uint256"
        }
      ],
      "name": "buyToken",
      "outputs": [],
      "stateMutability": "payable",
      "type": "function"
    },
    {
      "inputs": [
        {
          "internalType": "string",
          "name": "_name",
          "type": "string"
        },
        {
          "internalType": "string",
          "name": "_symbol",
          "type": "string"
        }
      ],
      "name": "create",
      "outputs": [],
      "stateMutability": "payable",
      "type": "function"
    },
    {
      "inputs": [
        {
          "internalType": "address",
          "name": "_token",
          "type": "address"
        }
      ],
      "name": "deposit",
      "outputs": [],
      "stateMutability": "nonpayable",
      "type": "function"
    },
    {
      "inputs": [],
      "name": "fee",
      "outputs": [
        {
          "internalType": "uint256",
          "name": "",
          "type": "uint256"
        }
      ],
      "stateMutability": "view",
      "type": "function"
    },
    {
      "inputs": [
        {
          "internalType": "uint256",
          "name": "_sold",
          "type": "uint256"
        }
      ],
      "name": "getCost",
      "outputs": [
        {
          "internalType": "uint256",
          "name": "",
          "type": "uint256"
        }
      ],
      "stateMutability": "pure",
      "type": "function"
    },
    {
      "inputs": [
        {
          "internalType": "uint256",
          "name": "_index",
          "type": "uint256"
        }
      ],
      "name": "getTokenSale",
      "outputs": [
        {
          "components": [
            {
              "internalType": "address",
              "name": "token",
              "type": "address"
            },
            {
              "internalType": "string",
              "name": "name",
              "type": "string"
            },
            {
              "internalType": "address",
              "name": "creator",
              "type": "address"
            },
            {
              "internalType": "uint256",
              "name": "sold",
              "type": "uint256"
            },
            {
              "internalType": "uint256",
              "name": "raised",
              "type": "uint256"
            },
            {
              "internalType": "bool",
              "name": "isOpen",
              "type": "bool"
            }
          ],
          "internalType": "struct Factory.TokenSale",
          "name": "",
          "type": "tuple"
        }
      ],
      "stateMutability": "view",
      "type": "function"
    },
    {
      "inputs": [],
      "name": "owner",
      "outputs": [
        {
          "internalType": "address",
          "name": "",
          "type": "address"
        }
      ],
      "stateMutability": "view",
      "type": "function"
    },
    {
      "inputs": [
        {
          "internalType": "address",
          "name": "",
          "type": "address"
        }
      ],
      "name": "tokenToSale",
      "outputs": [
        {
          "internalType": "address",
          "name": "token",
          "type": "address"
        },
        {
          "internalType": "string",
          "name": "name",
          "type": "string"
        },
        {
          "internalType": "address",
          "name": "creator",
          "type": "address"
        },
        {
          "internalType": "uint256",
          "name": "sold",
          "type": "uint256"
        },
        {
          "internalType": "uint256",
          "name": "raised",
          "type": "uint256"
        },
        {
          "internalType": "bool",
          "name": "isOpen",
          "type": "bool"
        }
      ],
      "stateMutability": "view",
      "type": "function"
    },
    {
      "inputs": [
        {
          "internalType": "uint256",
          "name": "",
          "type": "uint256"
        }
      ],
      "name": "tokens",
      "outputs": [
        {
          "internalType": "address",
          "name": "",
          "type": "address"
        }
      ],
      "stateMutability": "view",
      "type": "function"
    },
    {
      "inputs": [
        {
          "internalType": "uint256",
          "name": "_amount",
          "type": "uint256"
        }
      ],
      "name": "withdraw",
      "outputs": [],
      "stateMutability": "nonpayable",
      "type": "function"
    }
  ],
  "bytecode": "0x60a060405234801561001057600080fd5b50604051613b1e380380613b1e833981810160405281019061003291906100bb565b8060808181525050336000806101000a81548173ffffffffffffffffffffffffffffffffffffffff021916908373ffffffffffffffffffffffffffffffffffffffff160217905550506100e8565b600080fd5b6000819050919050565b61009881610085565b81146100a357600080fd5b50565b6000815190506100b58161008f565b92915050565b6000602082840312156100d1576100d0610080565b5b60006100df848285016100a6565b91505092915050565b608051613a1461010a600039600081816102eb0152610e0a0152613a146000f3fe6080604052600436106100a75760003560e01c806368f8fc101161006457806368f8fc10146101d35780638da5cb5b146101ef5780639c0ad5ed1461021a578063cc1f2afa1461025c578063ddca3f4314610287578063f340fa01146102b2576100a7565b8063031bd4c4146100ac578063198e2b8a146100d75780631fbc147b146100f35780632e1a7d4d146101305780634f64b2be146101595780635a4dd47d14610196575b600080fd5b3480156100b857600080fd5b506100c16102db565b6040516100ce9190611277565b60405180910390f35b6100f160048036038101906100ec91906113ec565b6102e9565b005b3480156100ff57600080fd5b5061011a60048036038101906101159190611490565b6105d5565b6040516101279190611630565b60405180910390f35b34801561013c57600080fd5b5061015760048036038101906101529190611490565b6107d9565b005b34801561016557600080fd5b50610180600480360381019061017b9190611490565b610938565b60405161018d9190611661565b60405180910390f35b3480156101a257600080fd5b506101bd60048036038101906101b89190611490565b610977565b6040516101ca9190611277565b60405180910390f35b6101ed60048036038101906101e891906116a8565b6109c7565b005b3480156101fb57600080fd5b50610204610cc7565b6040516102119190611661565b60405180910390f35b34801561022657600080fd5b50610241600480360381019061023c91906116e8565b610ceb565b6040516102539695949392919061176e565b60405180910390f35b34801561026857600080fd5b50610271610dfc565b60405161027e9190611277565b60405180910390f35b34801561029357600080fd5b5061029c610e08565b6040516102a99190611277565b60405180910390f35b3480156102be57600080fd5b506102d960048036038101906102d491906116e8565b610e2c565b005b6969e10de76676d080000081565b7f000000000000000000000000000000000000000000000000000000000000000034101561034c576040517f08c379a000000000000000000000000000000000000000000000000000000000815260040161034390611822565b60405180910390fd5b600033838369d3c21bcecceda1000000604051610368906111ed565b6103759493929190611887565b604051809103906000f080158015610391573d6000803e3d6000fd5b5090506002819080600181540180825580915050600190039060005260206000200160009091909190916101000a81548173ffffffffffffffffffffffffffffffffffffffff021916908373ffffffffffffffffffffffffffffffffffffffff1602179055506001600081548092919061040a90611909565b919050555060006040518060c001604052808373ffffffffffffffffffffffffffffffffffffffff1681526020018581526020013373ffffffffffffffffffffffffffffffffffffffff168152602001600081526020016000815260200160011515815250905080600360008473ffffffffffffffffffffffffffffffffffffffff1673ffffffffffffffffffffffffffffffffffffffff16815260200190815260200160002060008201518160000160006101000a81548173ffffffffffffffffffffffffffffffffffffffff021916908373ffffffffffffffffffffffffffffffffffffffff160217905550602082015181600101908161050d9190611b53565b5060408201518160020160006101000a81548173ffffffffffffffffffffffffffffffffffffffff021916908373ffffffffffffffffffffffffffffffffffffffff160217905550606082015181600301556080820151816004015560a08201518160050160006101000a81548160ff0219169083151502179055509050508173ffffffffffffffffffffffffffffffffffffffff167f2e2b3f61b70d2d131b2a807371103cc98d51adcaa5e9a8f9c32658ad8426e74e60405160405180910390a250505050565b6105dd6111fa565b60036000600284815481106105f5576105f4611c25565b5b9060005260206000200160009054906101000a900473ffffffffffffffffffffffffffffffffffffffff1673ffffffffffffffffffffffffffffffffffffffff1673ffffffffffffffffffffffffffffffffffffffff1681526020019081526020016000206040518060c00160405290816000820160009054906101000a900473ffffffffffffffffffffffffffffffffffffffff1673ffffffffffffffffffffffffffffffffffffffff1673ffffffffffffffffffffffffffffffffffffffff1681526020016001820180546106cb90611980565b80601f01602080910402602001604051908101604052809291908181526020018280546106f790611980565b80156107445780601f1061071957610100808354040283529160200191610744565b820191906000526020600020905b81548152906001019060200180831161072757829003601f168201915b505050505081526020016002820160009054906101000a900473ffffffffffffffffffffffffffffffffffffffff1673ffffffffffffffffffffffffffffffffffffffff1673ffffffffffffffffffffffffffffffffffffffff16815260200160038201548152602001600482015481526020016005820160009054906101000a900460ff1615151515815250509050919050565b60008054906101000a900473ffffffffffffffffffffffffffffffffffffffff1673ffffffffffffffffffffffffffffffffffffffff163373ffffffffffffffffffffffffffffffffffffffff1614610867576040517f08c379a000000000000000000000000000000000000000000000000000000000815260040161085e90611ca0565b60405180910390fd5b60008060009054906101000a900473ffffffffffffffffffffffffffffffffffffffff1673ffffffffffffffffffffffffffffffffffffffff16826040516108ae90611cf1565b60006040518083038185875af1925050503d80600081146108eb576040519150601f19603f3d011682016040523d82523d6000602084013e6108f0565b606091505b5050905080610934576040517f08c379a000000000000000000000000000000000000000000000000000000000815260040161092b90611d52565b60405180910390fd5b5050565b6002818154811061094857600080fd5b906000526020600020016000915054906101000a900473ffffffffffffffffffffffffffffffffffffffff1681565b600080655af3107a400090506000655af3107a400090506000612710905060008382876109a49190611da1565b846109af9190611dd2565b6109b99190611e14565b905080945050505050919050565b6000600360008473ffffffffffffffffffffffffffffffffffffffff1673ffffffffffffffffffffffffffffffffffffffff1681526020019081526020016000209050600115158160050160009054906101000a900460ff16151514610a62576040517f08c379a0000000000000000000000000000000000000000000000000000000008152600401610a5990611e94565b60405180910390fd5b670de0b6b3a7640000821015610aad576040517f08c379a0000000000000000000000000000000000000000000000000000000008152600401610aa490611f00565b60405180910390fd5b69021e19e0c9bab2400000821115610afa576040517f08c379a0000000000000000000000000000000000000000000000000000000008152600401610af190611f6c565b60405180910390fd5b6000610b098260030154610977565b90506000670de0b6b3a764000084610b219190611da1565b82610b2c9190611dd2565b905080341015610b71576040517f08c379a0000000000000000000000000000000000000000000000000000000008152600401610b6890611ffe565b60405180910390fd5b83836003016000828254610b859190611e14565b9250508190555080836004016000828254610ba09190611e14565b925050819055506969e10de76676d08000008360030154101580610bd057506729a2241af62c0000836004015410155b15610bf35760008360050160006101000a81548160ff0219169083151502179055505b8473ffffffffffffffffffffffffffffffffffffffff1663a9059cbb33866040518363ffffffff1660e01b8152600401610c2e92919061201e565b6020604051808303816000875af1158015610c4d573d6000803e3d6000fd5b505050506040513d601f19601f82011682018060405250810190610c719190612073565b508473ffffffffffffffffffffffffffffffffffffffff167fe3d4187f6ca4248660cc0ac8b8056515bac4a8132be2eca31d6d0cc170722a7e85604051610cb89190611277565b60405180910390a25050505050565b60008054906101000a900473ffffffffffffffffffffffffffffffffffffffff1681565b60036020528060005260406000206000915090508060000160009054906101000a900473ffffffffffffffffffffffffffffffffffffffff1690806001018054610d3490611980565b80601f0160208091040260200160405190810160405280929190818152602001828054610d6090611980565b8015610dad5780601f10610d8257610100808354040283529160200191610dad565b820191906000526020600020905b815481529060010190602001808311610d9057829003601f168201915b5050505050908060020160009054906101000a900473ffffffffffffffffffffffffffffffffffffffff16908060030154908060040154908060050160009054906101000a900460ff16905086565b6729a2241af62c000081565b7f000000000000000000000000000000000000000000000000000000000000000081565b60008190506000600360008473ffffffffffffffffffffffffffffffffffffffff1673ffffffffffffffffffffffffffffffffffffffff1681526020019081526020016000206040518060c00160405290816000820160009054906101000a900473ffffffffffffffffffffffffffffffffffffffff1673ffffffffffffffffffffffffffffffffffffffff1673ffffffffffffffffffffffffffffffffffffffff168152602001600182018054610ee390611980565b80601f0160208091040260200160405190810160405280929190818152602001828054610f0f90611980565b8015610f5c5780601f10610f3157610100808354040283529160200191610f5c565b820191906000526020600020905b815481529060010190602001808311610f3f57829003601f168201915b505050505081526020016002820160009054906101000a900473ffffffffffffffffffffffffffffffffffffffff1673ffffffffffffffffffffffffffffffffffffffff1673ffffffffffffffffffffffffffffffffffffffff16815260200160038201548152602001600482015481526020016005820160009054906101000a900460ff1615151515815250509050600015158160a00151151514611037576040517f08c379a000000000000000000000000000000000000000000000000000000000815260040161102e906120ec565b60405180910390fd5b8173ffffffffffffffffffffffffffffffffffffffff1663a9059cbb82604001518473ffffffffffffffffffffffffffffffffffffffff166370a08231306040518263ffffffff1660e01b81526004016110919190611661565b602060405180830381865afa1580156110ae573d6000803e3d6000fd5b505050506040513d601f19601f820116820180604052508101906110d29190612121565b6040518363ffffffff1660e01b81526004016110ef92919061201e565b6020604051808303816000875af115801561110e573d6000803e3d6000fd5b505050506040513d601f19601f820116820180604052508101906111329190612073565b506000816040015173ffffffffffffffffffffffffffffffffffffffff16826080015160405161116190611cf1565b60006040518083038185875af1925050503d806000811461119e576040519150601f19603f3d011682016040523d82523d6000602084013e6111a3565b606091505b50509050806111e7576040517f08c379a00000000000000000000000000000000000000000000000000000000081526004016111de90611d52565b60405180910390fd5b50505050565b6118908061214f83390190565b6040518060c00160405280600073ffffffffffffffffffffffffffffffffffffffff16815260200160608152602001600073ffffffffffffffffffffffffffffffffffffffff16815260200160008152602001600081526020016000151581525090565b6000819050919050565b6112718161125e565b82525050565b600060208201905061128c6000830184611268565b92915050565b6000604051905090565b600080fd5b600080fd5b600080fd5b600080fd5b6000601f19601f8301169050919050565b7f4e487b7100000000000000000000000000000000000000000000000000000000600052604160045260246000fd5b6112f9826112b0565b810181811067ffffffffffffffff82111715611318576113176112c1565b5b80604052505050565b600061132b611292565b905061133782826112f0565b919050565b600067ffffffffffffffff821115611357576113566112c1565b5b611360826112b0565b9050602081019050919050565b82818337600083830152505050565b600061138f61138a8461133c565b611321565b9050828152602081018484840111156113ab576113aa6112ab565b5b6113b684828561136d565b509392505050565b600082601f8301126113d3576113d26112a6565b5b81356113e384826020860161137c565b91505092915050565b600080604083850312156114035761140261129c565b5b600083013567ffffffffffffffff811115611421576114206112a1565b5b61142d858286016113be565b925050602083013567ffffffffffffffff81111561144e5761144d6112a1565b5b61145a858286016113be565b9150509250929050565b61146d8161125e565b811461147857600080fd5b50565b60008135905061148a81611464565b92915050565b6000602082840312156114a6576114a561129c565b5b60006114b48482850161147b565b91505092915050565b600073ffffffffffffffffffffffffffffffffffffffff82169050919050565b60006114e8826114bd565b9050919050565b6114f8816114dd565b82525050565b600081519050919050565b600082825260208201905092915050565b60005b8381101561153857808201518184015260208101905061151d565b60008484015250505050565b600061154f826114fe565b6115598185611509565b935061156981856020860161151a565b611572816112b0565b840191505092915050565b6115868161125e565b82525050565b60008115159050919050565b6115a18161158c565b82525050565b600060c0830160008301516115bf60008601826114ef565b50602083015184820360208601526115d78282611544565b91505060408301516115ec60408601826114ef565b5060608301516115ff606086018261157d565b506080830151611612608086018261157d565b5060a083015161162560a0860182611598565b508091505092915050565b6000602082019050818103600083015261164a81846115a7565b905092915050565b61165b816114dd565b82525050565b60006020820190506116766000830184611652565b92915050565b611685816114dd565b811461169057600080fd5b50565b6000813590506116a28161167c565b92915050565b600080604083850312156116bf576116be61129c565b5b60006116cd85828601611693565b92505060206116de8582860161147b565b9150509250929050565b6000602082840312156116fe576116fd61129c565b5b600061170c84828501611693565b91505092915050565b600082825260208201905092915050565b6000611731826114fe565b61173b8185611715565b935061174b81856020860161151a565b611754816112b0565b840191505092915050565b6117688161158c565b82525050565b600060c0820190506117836000830189611652565b81810360208301526117958188611726565b90506117a46040830187611652565b6117b16060830186611268565b6117be6080830185611268565b6117cb60a083018461175f565b979650505050505050565b7f63726561746f72277320666565206e6f74207061796564207965742100000000600082015250565b600061180c601c83611715565b9150611817826117d6565b602082019050919050565b6000602082019050818103600083015261183b816117ff565b9050919050565b6000819050919050565b6000819050919050565b600061187161186c61186784611842565b61184c565b61125e565b9050919050565b61188181611856565b82525050565b600060808201905061189c6000830187611652565b81810360208301526118ae8186611726565b905081810360408301526118c28185611726565b90506118d16060830184611878565b95945050505050565b7f4e487b7100000000000000000000000000000000000000000000000000000000600052601160045260246000fd5b60006119148261125e565b91507fffffffffffffffffffffffffffffffffffffffffffffffffffffffffffffffff8203611946576119456118da565b5b600182019050919050565b7f4e487b7100000000000000000000000000000000000000000000000000000000600052602260045260246000fd5b6000600282049050600182168061199857607f821691505b6020821081036119ab576119aa611951565b5b50919050565b60008190508160005260206000209050919050565b60006020601f8301049050919050565b600082821b905092915050565b600060088302611a137fffffffffffffffffffffffffffffffffffffffffffffffffffffffffffffffff826119d6565b611a1d86836119d6565b95508019841693508086168417925050509392505050565b6000611a50611a4b611a468461125e565b61184c565b61125e565b9050919050565b6000819050919050565b611a6a83611a35565b611a7e611a7682611a57565b8484546119e3565b825550505050565b600090565b611a93611a86565b611a9e818484611a61565b505050565b5b81811015611ac257611ab7600082611a8b565b600181019050611aa4565b5050565b601f821115611b0757611ad8816119b1565b611ae1846119c6565b81016020851015611af0578190505b611b04611afc856119c6565b830182611aa3565b50505b505050565b600082821c905092915050565b6000611b2a60001984600802611b0c565b1980831691505092915050565b6000611b438383611b19565b9150826002028217905092915050565b611b5c826114fe565b67ffffffffffffffff811115611b7557611b746112c1565b5b611b7f8254611980565b611b8a828285611ac6565b600060209050601f831160018114611bbd5760008415611bab578287015190505b611bb58582611b37565b865550611c1d565b601f198416611bcb866119b1565b60005b82811015611bf357848901518255600182019150602085019450602081019050611bce565b86831015611c105784890151611c0c601f891682611b19565b8355505b6001600288020188555050505b505050505050565b7f4e487b7100000000000000000000000000000000000000000000000000000000600052603260045260246000fd5b7f466163746f72793a204e6f74204f776e65720000000000000000000000000000600082015250565b6000611c8a601283611715565b9150611c9582611c54565b602082019050919050565b60006020820190508181036000830152611cb981611c7d565b9050919050565b600081905092915050565b50565b6000611cdb600083611cc0565b9150611ce682611ccb565b600082019050919050565b6000611cfc82611cce565b9150819050919050565b7f466163746f72793a20455448207472616e73666572206661696c656400000000600082015250565b6000611d3c601c83611715565b9150611d4782611d06565b602082019050919050565b60006020820190508181036000830152611d6b81611d2f565b9050919050565b7f4e487b7100000000000000000000000000000000000000000000000000000000600052601260045260246000fd5b6000611dac8261125e565b9150611db78361125e565b925082611dc757611dc6611d72565b5b828204905092915050565b6000611ddd8261125e565b9150611de88361125e565b9250828202611df68161125e565b91508282048414831517611e0d57611e0c6118da565b5b5092915050565b6000611e1f8261125e565b9150611e2a8361125e565b9250828201905080821115611e4257611e416118da565b5b92915050565b7f466163746f72793a20427579696e6720636c6f73656400000000000000000000600082015250565b6000611e7e601683611715565b9150611e8982611e48565b602082019050919050565b60006020820190508181036000830152611ead81611e71565b9050919050565b7f466163746f72793a20416d6f756e7420697320746f6f206c6f77000000000000600082015250565b6000611eea601a83611715565b9150611ef582611eb4565b602082019050919050565b60006020820190508181036000830152611f1981611edd565b9050919050565b7f466163746f72793a20416d6f756e742065786365656400000000000000000000600082015250565b6000611f56601683611715565b9150611f6182611f20565b602082019050919050565b60006020820190508181036000830152611f8581611f49565b9050919050565b7f466163746f72793a20496e73756666696369656e74204554482072656369766560008201527f6400000000000000000000000000000000000000000000000000000000000000602082015250565b6000611fe8602183611715565b9150611ff382611f8c565b604082019050919050565b6000602082019050818103600083015261201781611fdb565b9050919050565b60006040820190506120336000830185611652565b6120406020830184611268565b9392505050565b6120508161158c565b811461205b57600080fd5b50565b60008151905061206d81612047565b92915050565b6000602082840312156120895761208861129c565b5b60006120978482850161205e565b91505092915050565b7f466163746f72793a20546172676574206e6f7420726561636865640000000000600082015250565b60006120d6601b83611715565b91506120e1826120a0565b602082019050919050565b60006020820190508181036000830152612105816120c9565b9050919050565b60008151905061211b81611464565b92915050565b6000602082840312156121375761213661129c565b5b60006121458482850161210c565b9150509291505056fe608060405234801561001057600080fd5b5060405161189038038061189083398181016040528101906100329190610566565b82828160039081610043919061081c565b508060049081610053919061081c565b50505083600560006101000a81548173ffffffffffffffffffffffffffffffffffffffff021916908373ffffffffffffffffffffffffffffffffffffffff1602179055506100a733826100b060201b60201c565b505050506109dc565b600073ffffffffffffffffffffffffffffffffffffffff168273ffffffffffffffffffffffffffffffffffffffff16036101225760006040517fec442f0500000000000000000000000000000000000000000000000000000000815260040161011991906108fd565b60405180910390fd5b6101346000838361013860201b60201c565b5050565b600073ffffffffffffffffffffffffffffffffffffffff168373ffffffffffffffffffffffffffffffffffffffff160361018a57806002600082825461017e9190610947565b9250508190555061025d565b60008060008573ffffffffffffffffffffffffffffffffffffffff1673ffffffffffffffffffffffffffffffffffffffff16815260200190815260200160002054905081811015610216578381836040517fe450d38c00000000000000000000000000000000000000000000000000000000815260040161020d9392919061098a565b60405180910390fd5b8181036000808673ffffffffffffffffffffffffffffffffffffffff1673ffffffffffffffffffffffffffffffffffffffff16815260200190815260200160002081905550505b600073ffffffffffffffffffffffffffffffffffffffff168273ffffffffffffffffffffffffffffffffffffffff16036102a657806002600082825403925050819055506102f3565b806000808473ffffffffffffffffffffffffffffffffffffffff1673ffffffffffffffffffffffffffffffffffffffff168152602001908152602001600020600082825401925050819055505b8173ffffffffffffffffffffffffffffffffffffffff168373ffffffffffffffffffffffffffffffffffffffff167fddf252ad1be2c89b69c2b068fc378daa952ba7f163c4a11628f55a4df523b3ef8360405161035091906109c1565b60405180910390a3505050565b6000604051905090565b600080fd5b600080fd5b600073ffffffffffffffffffffffffffffffffffffffff82169050919050565b600061039c82610371565b9050919050565b6103ac81610391565b81146103b757600080fd5b50565b6000815190506103c9816103a3565b92915050565b600080fd5b600080fd5b6000601f19601f8301169050919050565b7f4e487b7100000000000000000000000000000000000000000000000000000000600052604160045260246000fd5b610422826103d9565b810181811067ffffffffffffffff82111715610441576104406103ea565b5b80604052505050565b600061045461035d565b90506104608282610419565b919050565b600067ffffffffffffffff8211156104805761047f6103ea565b5b610489826103d9565b9050602081019050919050565b60005b838110156104b4578082015181840152602081019050610499565b60008484015250505050565b60006104d36104ce84610465565b61044a565b9050828152602081018484840111156104ef576104ee6103d4565b5b6104fa848285610496565b509392505050565b600082601f830112610517576105166103cf565b5b81516105278482602086016104c0565b91505092915050565b6000819050919050565b61054381610530565b811461054e57600080fd5b50565b6000815190506105608161053a565b92915050565b600080600080608085870312156105805761057f610367565b5b600061058e878288016103ba565b945050602085015167ffffffffffffffff8111156105af576105ae61036c565b5b6105bb87828801610502565b935050604085015167ffffffffffffffff8111156105dc576105db61036c565b5b6105e887828801610502565b92505060606105f987828801610551565b91505092959194509250565b600081519050919050565b7f4e487b7100000000000000000000000000000000000000000000000000000000600052602260045260246000fd5b6000600282049050600182168061065757607f821691505b60208210810361066a57610669610610565b5b50919050565b60008190508160005260206000209050919050565b60006020601f8301049050919050565b600082821b905092915050565b6000600883026106d27fffffffffffffffffffffffffffffffffffffffffffffffffffffffffffffffff82610695565b6106dc8683610695565b95508019841693508086168417925050509392505050565b6000819050919050565b600061071961071461070f84610530565b6106f4565b610530565b9050919050565b6000819050919050565b610733836106fe565b61074761073f82610720565b8484546106a2565b825550505050565b600090565b61075c61074f565b61076781848461072a565b505050565b5b8181101561078b57610780600082610754565b60018101905061076d565b5050565b601f8211156107d0576107a181610670565b6107aa84610685565b810160208510156107b9578190505b6107cd6107c585610685565b83018261076c565b50505b505050565b600082821c905092915050565b60006107f3600019846008026107d5565b1980831691505092915050565b600061080c83836107e2565b9150826002028217905092915050565b61082582610605565b67ffffffffffffffff81111561083e5761083d6103ea565b5b610848825461063f565b61085382828561078f565b600060209050601f8311600181146108865760008415610874578287015190505b61087e8582610800565b8655506108e6565b601f19841661089486610670565b60005b828110156108bc57848901518255600182019150602085019450602081019050610897565b868310156108d957848901516108d5601f8916826107e2565b8355505b6001600288020188555050505b505050505050565b6108f781610391565b82525050565b600060208201905061091260008301846108ee565b92915050565b7f4e487b7100000000000000000000000000000000000000000000000000000000600052601160045260246000fd5b600061095282610530565b915061095d83610530565b925082820190508082111561097557610974610918565b5b92915050565b61098481610530565b82525050565b600060608201905061099f60008301866108ee565b6109ac602083018561097b565b6109b9604083018461097b565b949350505050565b60006020820190506109d6600083018461097b565b92915050565b610ea5806109eb6000396000f3fe608060405234801561001057600080fd5b506004361061009e5760003560e01c8063313ce56711610066578063313ce5671461015d57806370a082311461017b57806395d89b41146101ab578063a9059cbb146101c9578063dd62ed3e146101f95761009e565b806302d05d3f146100a357806306fdde03146100c1578063095ea7b3146100df57806318160ddd1461010f57806323b872dd1461012d575b600080fd5b6100ab610229565b6040516100b89190610aaa565b60405180910390f35b6100c961024f565b6040516100d69190610b55565b60405180910390f35b6100f960048036038101906100f49190610bde565b6102e1565b6040516101069190610c39565b60405180910390f35b610117610304565b6040516101249190610c63565b60405180910390f35b61014760048036038101906101429190610c7e565b61030e565b6040516101549190610c39565b60405180910390f35b61016561033d565b6040516101729190610ced565b60405180910390f35b61019560048036038101906101909190610d08565b610346565b6040516101a29190610c63565b60405180910390f35b6101b361038e565b6040516101c09190610b55565b60405180910390f35b6101e360048036038101906101de9190610bde565b610420565b6040516101f09190610c39565b60405180910390f35b610213600480360381019061020e9190610d35565b610443565b6040516102209190610c63565b60405180910390f35b600560009054906101000a900473ffffffffffffffffffffffffffffffffffffffff1681565b60606003805461025e90610da4565b80601f016020809104026020016040519081016040528092919081815260200182805461028a90610da4565b80156102d75780601f106102ac576101008083540402835291602001916102d7565b820191906000526020600020905b8154815290600101906020018083116102ba57829003601f168201915b5050505050905090565b6000806102ec6104ca565b90506102f98185856104d2565b600191505092915050565b6000600254905090565b6000806103196104ca565b90506103268582856104e4565b610331858585610579565b60019150509392505050565b60006012905090565b60008060008373ffffffffffffffffffffffffffffffffffffffff1673ffffffffffffffffffffffffffffffffffffffff168152602001908152602001600020549050919050565b60606004805461039d90610da4565b80601f01602080910402602001604051908101604052809291908181526020018280546103c990610da4565b80156104165780601f106103eb57610100808354040283529160200191610416565b820191906000526020600020905b8154815290600101906020018083116103f957829003601f168201915b5050505050905090565b60008061042b6104ca565b9050610438818585610579565b600191505092915050565b6000600160008473ffffffffffffffffffffffffffffffffffffffff1673ffffffffffffffffffffffffffffffffffffffff16815260200190815260200160002060008373ffffffffffffffffffffffffffffffffffffffff1673ffffffffffffffffffffffffffffffffffffffff16815260200190815260200160002054905092915050565b600033905090565b6104df838383600161066d565b505050565b60006104f08484610443565b90507fffffffffffffffffffffffffffffffffffffffffffffffffffffffffffffffff8110156105735781811015610563578281836040517ffb8f41b200000000000000000000000000000000000000000000000000000000815260040161055a93929190610dd5565b60405180910390fd5b6105728484848403600061066d565b5b50505050565b600073ffffffffffffffffffffffffffffffffffffffff168373ffffffffffffffffffffffffffffffffffffffff16036105eb5760006040517f96c6fd1e0000000000000000000000000000000000000000000000000000000081526004016105e29190610aaa565b60405180910390fd5b600073ffffffffffffffffffffffffffffffffffffffff168273ffffffffffffffffffffffffffffffffffffffff160361065d5760006040517fec442f050000000000000000000000000000000000000000000000000000000081526004016106549190610aaa565b60405180910390fd5b610668838383610844565b505050565b600073ffffffffffffffffffffffffffffffffffffffff168473ffffffffffffffffffffffffffffffffffffffff16036106df5760006040517fe602df050000000000000000000000000000000000000000000000000000000081526004016106d69190610aaa565b60405180910390fd5b600073ffffffffffffffffffffffffffffffffffffffff168373ffffffffffffffffffffffffffffffffffffffff16036107515760006040517f94280d620000000000000000000000000000000000000000000000000000000081526004016107489190610aaa565b60405180910390fd5b81600160008673ffffffffffffffffffffffffffffffffffffffff1673ffffffffffffffffffffffffffffffffffffffff16815260200190815260200160002060008573ffffffffffffffffffffffffffffffffffffffff1673ffffffffffffffffffffffffffffffffffffffff16815260200190815260200160002081905550801561083e578273ffffffffffffffffffffffffffffffffffffffff168473ffffffffffffffffffffffffffffffffffffffff167f8c5be1e5ebec7d5bd14f71427d1e84f3dd0314c0f7b2291e5b200ac8c7c3b925846040516108359190610c63565b60405180910390a35b50505050565b600073ffffffffffffffffffffffffffffffffffffffff168373ffffffffffffffffffffffffffffffffffffffff160361089657806002600082825461088a9190610e3b565b92505081905550610969565b60008060008573ffffffffffffffffffffffffffffffffffffffff1673ffffffffffffffffffffffffffffffffffffffff16815260200190815260200160002054905081811015610922578381836040517fe450d38c00000000000000000000000000000000000000000000000000000000815260040161091993929190610dd5565b60405180910390fd5b8181036000808673ffffffffffffffffffffffffffffffffffffffff1673ffffffffffffffffffffffffffffffffffffffff16815260200190815260200160002081905550505b600073ffffffffffffffffffffffffffffffffffffffff168273ffffffffffffffffffffffffffffffffffffffff16036109b257806002600082825403925050819055506109ff565b806000808473ffffffffffffffffffffffffffffffffffffffff1673ffffffffffffffffffffffffffffffffffffffff168152602001908152602001600020600082825401925050819055505b8173ffffffffffffffffffffffffffffffffffffffff168373ffffffffffffffffffffffffffffffffffffffff167fddf252ad1be2c89b69c2b068fc378daa952ba7f163c4a11628f55a4df523b3ef83604051610a5c9190610c63565b60405180910390a3505050565b600073ffffffffffffffffffffffffffffffffffffffff82169050919050565b6000610a9482610a69565b9050919050565b610aa481610a89565b82525050565b6000602082019050610abf6000830184610a9b565b92915050565b600081519050919050565b600082825260208201905092915050565b60005b83811015610aff578082015181840152602081019050610ae4565b60008484015250505050565b6000601f19601f8301169050919050565b6000610b2782610ac5565b610b318185610ad0565b9350610b41818560208601610ae1565b610b4a81610b0b565b840191505092915050565b60006020820190508181036000830152610b6f8184610b1c565b905092915050565b600080fd5b610b8581610a89565b8114610b9057600080fd5b50565b600081359050610ba281610b7c565b92915050565b6000819050919050565b610bbb81610ba8565b8114610bc657600080fd5b50565b600081359050610bd881610bb2565b92915050565b60008060408385031215610bf557610bf4610b77565b5b6000610c0385828601610b93565b9250506020610c1485828601610bc9565b9150509250929050565b60008115159050919050565b610c3381610c1e565b82525050565b6000602082019050610c4e6000830184610c2a565b92915050565b610c5d81610ba8565b82525050565b6000602082019050610c786000830184610c54565b92915050565b600080600060608486031215610c9757610c96610b77565b5b6000610ca586828701610b93565b9350506020610cb686828701610b93565b9250506040610cc786828701610bc9565b9150509250925092565b600060ff82169050919050565b610ce781610cd1565b82525050565b6000602082019050610d026000830184610cde565b92915050565b600060208284031215610d1e57610d1d610b77565b5b6000610d2c84828501610b93565b91505092915050565b60008060408385031215610d4c57610d4b610b77565b5b6000610d5a85828601610b93565b9250506020610d6b85828601610b93565b9150509250929050565b7f4e487b7100000000000000000000000000000000000000000000000000000000600052602260045260246000fd5b60006002820490506001821680610dbc57607f821691505b602082108103610dcf57610dce610d75565b5b50919050565b6000606082019050610dea6000830186610a9b565b610df76020830185610c54565b610e046040830184610c54565b949350505050565b7f4e487b7100000000000000000000000000000000000000000000000000000000600052601160045260246000fd5b6000610e4682610ba8565b9150610e5183610ba8565b9250828201905080821115610e6957610e68610e0c565b5b9291505056fea264697066735822122035f4be0860bae9a42907dca7488784a804e89681b0670218dc8721f9c2de0af564736f6c634300081b0033a26469706673582212204b0602bd3d2b70521b4c277609d9c8297419f275c90567b3292a83e2c9837c1d64736f6c634300081b0033",
  "linkReferences": {},
  "deployedLinkReferences": {}
}