{
  "_format": "hh-sol-artifact-1",
  "contractName": "Factory",
  "sourceName": "contracts/Factory.sol",
  "abi": [
    {
      "inputs": [
        {
          "internalType": "uint256",
          "name": "_fee",
          "type": "uint256"
        }
      ],
      "stateMutability": "nonpayable",
      "type": "constructor"
    },
    {
      "anonymous": false,
      "inputs": [
        {
          "indexed": true,
          "internalType": "address",
          "name": "tokenAddress",
          "type": "address"
        },
        {
          "indexed": false,
          "internalType": "uint256",
          "name": "amount",
          "type": "uint256"
        }
      ],
      "name": "Buy",
      "type": "event"
    },
    {
      "anonymous": false,
      "inputs": [
        {
          "indexed": true,
          "internalType": "address",
          "name": "token",
          "type": "address"
        }
      ],
      "name": "TokenCreated",
      "type": "event"
    },
    {
      "inputs": [],
      "name": "TARGET",
      "outputs": [
        {
          "internalType": "uint256",
          "name": "",
          "type": "uint256"
        }
      ],
      "stateMutability": "view",
      "type": "function"
    },
    {
      "inputs": [],
      "name": "TOKEN_LIMIT",
      "outputs": [
        {
          "internalType": "uint256",
          "name": "",
          "type": "uint256"
        }
      ],
      "stateMutability": "view",
      "type": "function"
    },
    {
      "inputs": [
        {
          "internalType": "address",
          "name": "_tokenAddress",
          "type": "address"
        },
        {
          "internalType": "uint256",
          "name": "_amount",
          "type": "uint256"
        }
      ],
      "name": "buyToken",
      "outputs": [],
      "stateMutability": "payable",
      "type": "function"
    },
    {
      "inputs": [
        {
          "internalType": "string",
          "name": "_name",
          "type": "string"
        },
        {
          "internalType": "string",
          "name": "_symbol",
          "type": "string"
        }
      ],
      "name": "create",
      "outputs": [],
      "stateMutability": "payable",
      "type": "function"
    },
    {
      "inputs": [
        {
          "internalType": "address",
          "name": "_token",
          "type": "address"
        }
      ],
      "name": "deposit",
      "outputs": [],
      "stateMutability": "nonpayable",
      "type": "function"
    },
    {
      "inputs": [],
      "name": "fee",
      "outputs": [
        {
          "internalType": "uint256",
          "name": "",
          "type": "uint256"
        }
      ],
      "stateMutability": "view",
      "type": "function"
    },
    {
      "inputs": [
        {
          "internalType": "uint256",
          "name": "_sold",
          "type": "uint256"
        }
      ],
      "name": "getCost",
      "outputs": [
        {
          "internalType": "uint256",
          "name": "",
          "type": "uint256"
        }
      ],
      "stateMutability": "pure",
      "type": "function"
    },
    {
      "inputs": [
        {
          "internalType": "uint256",
          "name": "_index",
          "type": "uint256"
        }
      ],
      "name": "getTokenSale",
      "outputs": [
        {
          "components": [
            {
              "internalType": "address",
              "name": "token",
              "type": "address"
            },
            {
              "internalType": "string",
              "name": "name",
              "type": "string"
            },
            {
              "internalType": "address",
              "name": "creator",
              "type": "address"
            },
            {
              "internalType": "uint256",
              "name": "sold",
              "type": "uint256"
            },
            {
              "internalType": "uint256",
              "name": "raised",
              "type": "uint256"
            },
            {
              "internalType": "bool",
              "name": "isOpen",
              "type": "bool"
            }
          ],
          "internalType": "struct Factory.TokenSale",
          "name": "",
          "type": "tuple"
        }
      ],
      "stateMutability": "view",
      "type": "function"
    },
    {
      "inputs": [],
      "name": "owner",
      "outputs": [
        {
          "internalType": "address",
          "name": "",
          "type": "address"
        }
      ],
      "stateMutability": "view",
      "type": "function"
    },
    {
      "inputs": [
        {
          "internalType": "address",
          "name": "",
          "type": "address"
        }
      ],
      "name": "tokenToSale",
      "outputs": [
        {
          "internalType": "address",
          "name": "token",
          "type": "address"
        },
        {
          "internalType": "string",
          "name": "name",
          "type": "string"
        },
        {
          "internalType": "address",
          "name": "creator",
          "type": "address"
        },
        {
          "internalType": "uint256",
          "name": "sold",
          "type": "uint256"
        },
        {
          "internalType": "uint256",
          "name": "raised",
          "type": "uint256"
        },
        {
          "internalType": "bool",
          "name": "isOpen",
          "type": "bool"
        }
      ],
      "stateMutability": "view",
      "type": "function"
    },
    {
      "inputs": [
        {
          "internalType": "uint256",
          "name": "",
          "type": "uint256"
        }
      ],
      "name": "tokens",
      "outputs": [
        {
          "internalType": "address",
          "name": "",
          "type": "address"
        }
      ],
      "stateMutability": "view",
      "type": "function"
    },
    {
      "inputs": [
        {
          "internalType": "uint256",
          "name": "_amount",
          "type": "uint256"
        }
      ],
      "name": "withdraw",
      "outputs": [],
      "stateMutability": "nonpayable",
      "type": "function"
    }
  ],
  "bytecode": "0x60a060405234801561001057600080fd5b50604051613a04380380613a04833981810160405281019061003291906100bb565b8060808181525050336000806101000a81548173ffffffffffffffffffffffffffffffffffffffff021916908373ffffffffffffffffffffffffffffffffffffffff160217905550506100e8565b600080fd5b6000819050919050565b61009881610085565b81146100a357600080fd5b50565b6000815190506100b58161008f565b92915050565b6000602082840312156100d1576100d0610080565b5b60006100df848285016100a6565b91505092915050565b6080516138fa61010a600039600081816102eb0152610dc001526138fa6000f3fe6080604052600436106100a75760003560e01c806368f8fc101161006457806368f8fc10146101d35780638da5cb5b146101ef5780639c0ad5ed1461021a578063cc1f2afa1461025c578063ddca3f4314610287578063f340fa01146102b2576100a7565b8063031bd4c4146100ac578063198e2b8a146100d75780631fbc147b146100f35780632e1a7d4d146101305780634f64b2be146101595780635a4dd47d14610196575b600080fd5b3480156100b857600080fd5b506100c16102db565b6040516100ce919061115d565b60405180910390f35b6100f160048036038101906100ec91906112d2565b6102e9565b005b3480156100ff57600080fd5b5061011a60048036038101906101159190611376565b6105d4565b6040516101279190611516565b60405180910390f35b34801561013c57600080fd5b5061015760048036038101906101529190611376565b6107d8565b005b34801561016557600080fd5b50610180600480360381019061017b9190611376565b610937565b60405161018d9190611547565b60405180910390f35b3480156101a257600080fd5b506101bd60048036038101906101b89190611376565b610976565b6040516101ca919061115d565b60405180910390f35b6101ed60048036038101906101e8919061158e565b6109d9565b005b3480156101fb57600080fd5b50610204610c7d565b6040516102119190611547565b60405180910390f35b34801561022657600080fd5b50610241600480360381019061023c91906115ce565b610ca1565b60405161025396959493929190611654565b60405180910390f35b34801561026857600080fd5b50610271610db2565b60405161027e919061115d565b60405180910390f35b34801561029357600080fd5b5061029c610dbe565b6040516102a9919061115d565b60405180910390f35b3480156102be57600080fd5b506102d960048036038101906102d491906115ce565b610de2565b005b6969e10de76676d080000081565b7f0000000000000000000000000000000000000000000000000000000000000000341461034b576040517f08c379a000000000000000000000000000000000000000000000000000000000815260040161034290611708565b60405180910390fd5b600033838369d3c21bcecceda1000000604051610367906110d3565b610374949392919061176d565b604051809103906000f080158015610390573d6000803e3d6000fd5b5090506002819080600181540180825580915050600190039060005260206000200160009091909190916101000a81548173ffffffffffffffffffffffffffffffffffffffff021916908373ffffffffffffffffffffffffffffffffffffffff16021790555060016000815480929190610409906117ef565b919050555060006040518060c001604052808373ffffffffffffffffffffffffffffffffffffffff1681526020018581526020013373ffffffffffffffffffffffffffffffffffffffff168152602001600081526020016000815260200160011515815250905080600360008473ffffffffffffffffffffffffffffffffffffffff1673ffffffffffffffffffffffffffffffffffffffff16815260200190815260200160002060008201518160000160006101000a81548173ffffffffffffffffffffffffffffffffffffffff021916908373ffffffffffffffffffffffffffffffffffffffff160217905550602082015181600101908161050c9190611a39565b5060408201518160020160006101000a81548173ffffffffffffffffffffffffffffffffffffffff021916908373ffffffffffffffffffffffffffffffffffffffff160217905550606082015181600301556080820151816004015560a08201518160050160006101000a81548160ff0219169083151502179055509050508173ffffffffffffffffffffffffffffffffffffffff167f2e2b3f61b70d2d131b2a807371103cc98d51adcaa5e9a8f9c32658ad8426e74e60405160405180910390a250505050565b6105dc6110e0565b60036000600284815481106105f4576105f3611b0b565b5b9060005260206000200160009054906101000a900473ffffffffffffffffffffffffffffffffffffffff1673ffffffffffffffffffffffffffffffffffffffff1673ffffffffffffffffffffffffffffffffffffffff1681526020019081526020016000206040518060c00160405290816000820160009054906101000a900473ffffffffffffffffffffffffffffffffffffffff1673ffffffffffffffffffffffffffffffffffffffff1673ffffffffffffffffffffffffffffffffffffffff1681526020016001820180546106ca90611866565b80601f01602080910402602001604051908101604052809291908181526020018280546106f690611866565b80156107435780601f1061071857610100808354040283529160200191610743565b820191906000526020600020905b81548152906001019060200180831161072657829003601f168201915b505050505081526020016002820160009054906101000a900473ffffffffffffffffffffffffffffffffffffffff1673ffffffffffffffffffffffffffffffffffffffff1673ffffffffffffffffffffffffffffffffffffffff16815260200160038201548152602001600482015481526020016005820160009054906101000a900460ff1615151515815250509050919050565b60008054906101000a900473ffffffffffffffffffffffffffffffffffffffff1673ffffffffffffffffffffffffffffffffffffffff163373ffffffffffffffffffffffffffffffffffffffff1614610866576040517f08c379a000000000000000000000000000000000000000000000000000000000815260040161085d90611b86565b60405180910390fd5b60008060009054906101000a900473ffffffffffffffffffffffffffffffffffffffff1673ffffffffffffffffffffffffffffffffffffffff16826040516108ad90611bd7565b60006040518083038185875af1925050503d80600081146108ea576040519150601f19603f3d011682016040523d82523d6000602084013e6108ef565b606091505b5050905080610933576040517f08c379a000000000000000000000000000000000000000000000000000000000815260040161092a90611c38565b60405180910390fd5b5050565b6002818154811061094757600080fd5b906000526020600020016000915054906101000a900473ffffffffffffffffffffffffffffffffffffffff1681565b600080655af3107a400090506000655af3107a400090506000612710905060008382670de0b6b3a7640000886109ac9190611c87565b6109b69190611c87565b846109c19190611cb8565b6109cb9190611cfa565b905080945050505050919050565b6000600360008473ffffffffffffffffffffffffffffffffffffffff1673ffffffffffffffffffffffffffffffffffffffff16815260200190815260200160002090508060050160009054906101000a900460ff16610a6d576040517f08c379a0000000000000000000000000000000000000000000000000000000008152600401610a6490611d7a565b60405180910390fd5b60008211610ab0576040517f08c379a0000000000000000000000000000000000000000000000000000000008152600401610aa790611de6565b60405180910390fd5b6000610abf8260030154610976565b90506000670de0b6b3a76400008285610ad89190611cb8565b610ae29190611c87565b905080341015610b27576040517f08c379a0000000000000000000000000000000000000000000000000000000008152600401610b1e90611e78565b60405180910390fd5b83836003016000828254610b3b9190611cfa565b9250508190555080836004016000828254610b569190611cfa565b925050819055506969e10de76676d08000008360030154101580610b8657506729a2241af62c0000836004015410155b15610ba95760008360050160006101000a81548160ff0219169083151502179055505b8473ffffffffffffffffffffffffffffffffffffffff1663a9059cbb33866040518363ffffffff1660e01b8152600401610be4929190611e98565b6020604051808303816000875af1158015610c03573d6000803e3d6000fd5b505050506040513d601f19601f82011682018060405250810190610c279190611eed565b508473ffffffffffffffffffffffffffffffffffffffff167fe3d4187f6ca4248660cc0ac8b8056515bac4a8132be2eca31d6d0cc170722a7e85604051610c6e919061115d565b60405180910390a25050505050565b60008054906101000a900473ffffffffffffffffffffffffffffffffffffffff1681565b60036020528060005260406000206000915090508060000160009054906101000a900473ffffffffffffffffffffffffffffffffffffffff1690806001018054610cea90611866565b80601f0160208091040260200160405190810160405280929190818152602001828054610d1690611866565b8015610d635780601f10610d3857610100808354040283529160200191610d63565b820191906000526020600020905b815481529060010190602001808311610d4657829003601f168201915b5050505050908060020160009054906101000a900473ffffffffffffffffffffffffffffffffffffffff16908060030154908060040154908060050160009054906101000a900460ff16905086565b6729a2241af62c000081565b7f000000000000000000000000000000000000000000000000000000000000000081565b6000600360008373ffffffffffffffffffffffffffffffffffffffff1673ffffffffffffffffffffffffffffffffffffffff168152602001908152602001600020905060008290508160050160009054906101000a900460ff1615610e7c576040517f08c379a0000000000000000000000000000000000000000000000000000000008152600401610e7390611f66565b60405180910390fd5b6000826004015411610ec3576040517f08c379a0000000000000000000000000000000000000000000000000000000008152600401610eba90611fd2565b60405180910390fd5b60008173ffffffffffffffffffffffffffffffffffffffff166370a08231306040518263ffffffff1660e01b8152600401610efe9190611547565b602060405180830381865afa158015610f1b573d6000803e3d6000fd5b505050506040513d601f19601f82011682018060405250810190610f3f9190612007565b90506000811115610fee578173ffffffffffffffffffffffffffffffffffffffff1663a9059cbb8460020160009054906101000a900473ffffffffffffffffffffffffffffffffffffffff16836040518363ffffffff1660e01b8152600401610fa9929190611e98565b6020604051808303816000875af1158015610fc8573d6000803e3d6000fd5b505050506040513d601f19601f82011682018060405250810190610fec9190611eed565b505b60008360020160009054906101000a900473ffffffffffffffffffffffffffffffffffffffff1673ffffffffffffffffffffffffffffffffffffffff16846004015460405161103c90611bd7565b60006040518083038185875af1925050503d8060008114611079576040519150601f19603f3d011682016040523d82523d6000602084013e61107e565b606091505b50509050806110c2576040517f08c379a00000000000000000000000000000000000000000000000000000000081526004016110b990611c38565b60405180910390fd5b600084600401819055505050505050565b6118908061203583390190565b6040518060c00160405280600073ffffffffffffffffffffffffffffffffffffffff16815260200160608152602001600073ffffffffffffffffffffffffffffffffffffffff16815260200160008152602001600081526020016000151581525090565b6000819050919050565b61115781611144565b82525050565b6000602082019050611172600083018461114e565b92915050565b6000604051905090565b600080fd5b600080fd5b600080fd5b600080fd5b6000601f19601f8301169050919050565b7f4e487b7100000000000000000000000000000000000000000000000000000000600052604160045260246000fd5b6111df82611196565b810181811067ffffffffffffffff821117156111fe576111fd6111a7565b5b80604052505050565b6000611211611178565b905061121d82826111d6565b919050565b600067ffffffffffffffff82111561123d5761123c6111a7565b5b61124682611196565b9050602081019050919050565b82818337600083830152505050565b600061127561127084611222565b611207565b90508281526020810184848401111561129157611290611191565b5b61129c848285611253565b509392505050565b600082601f8301126112b9576112b861118c565b5b81356112c9848260208601611262565b91505092915050565b600080604083850312156112e9576112e8611182565b5b600083013567ffffffffffffffff81111561130757611306611187565b5b611313858286016112a4565b925050602083013567ffffffffffffffff81111561133457611333611187565b5b611340858286016112a4565b9150509250929050565b61135381611144565b811461135e57600080fd5b50565b6000813590506113708161134a565b92915050565b60006020828403121561138c5761138b611182565b5b600061139a84828501611361565b91505092915050565b600073ffffffffffffffffffffffffffffffffffffffff82169050919050565b60006113ce826113a3565b9050919050565b6113de816113c3565b82525050565b600081519050919050565b600082825260208201905092915050565b60005b8381101561141e578082015181840152602081019050611403565b60008484015250505050565b6000611435826113e4565b61143f81856113ef565b935061144f818560208601611400565b61145881611196565b840191505092915050565b61146c81611144565b82525050565b60008115159050919050565b61148781611472565b82525050565b600060c0830160008301516114a560008601826113d5565b50602083015184820360208601526114bd828261142a565b91505060408301516114d260408601826113d5565b5060608301516114e56060860182611463565b5060808301516114f86080860182611463565b5060a083015161150b60a086018261147e565b508091505092915050565b60006020820190508181036000830152611530818461148d565b905092915050565b611541816113c3565b82525050565b600060208201905061155c6000830184611538565b92915050565b61156b816113c3565b811461157657600080fd5b50565b60008135905061158881611562565b92915050565b600080604083850312156115a5576115a4611182565b5b60006115b385828601611579565b92505060206115c485828601611361565b9150509250929050565b6000602082840312156115e4576115e3611182565b5b60006115f284828501611579565b91505092915050565b600082825260208201905092915050565b6000611617826113e4565b61162181856115fb565b9350611631818560208601611400565b61163a81611196565b840191505092915050565b61164e81611472565b82525050565b600060c0820190506116696000830189611538565b818103602083015261167b818861160c565b905061168a6040830187611538565b611697606083018661114e565b6116a4608083018561114e565b6116b160a0830184611645565b979650505050505050565b7f63726561746f72277320666565206e6f74207061796564207965742100000000600082015250565b60006116f2601c836115fb565b91506116fd826116bc565b602082019050919050565b60006020820190508181036000830152611721816116e5565b9050919050565b6000819050919050565b6000819050919050565b600061175761175261174d84611728565b611732565b611144565b9050919050565b6117678161173c565b82525050565b60006080820190506117826000830187611538565b8181036020830152611794818661160c565b905081810360408301526117a8818561160c565b90506117b7606083018461175e565b95945050505050565b7f4e487b7100000000000000000000000000000000000000000000000000000000600052601160045260246000fd5b60006117fa82611144565b91507fffffffffffffffffffffffffffffffffffffffffffffffffffffffffffffffff820361182c5761182b6117c0565b5b600182019050919050565b7f4e487b7100000000000000000000000000000000000000000000000000000000600052602260045260246000fd5b6000600282049050600182168061187e57607f821691505b60208210810361189157611890611837565b5b50919050565b60008190508160005260206000209050919050565b60006020601f8301049050919050565b600082821b905092915050565b6000600883026118f97fffffffffffffffffffffffffffffffffffffffffffffffffffffffffffffffff826118bc565b61190386836118bc565b95508019841693508086168417925050509392505050565b600061193661193161192c84611144565b611732565b611144565b9050919050565b6000819050919050565b6119508361191b565b61196461195c8261193d565b8484546118c9565b825550505050565b600090565b61197961196c565b611984818484611947565b505050565b5b818110156119a85761199d600082611971565b60018101905061198a565b5050565b601f8211156119ed576119be81611897565b6119c7846118ac565b810160208510156119d6578190505b6119ea6119e2856118ac565b830182611989565b50505b505050565b600082821c905092915050565b6000611a10600019846008026119f2565b1980831691505092915050565b6000611a2983836119ff565b9150826002028217905092915050565b611a42826113e4565b67ffffffffffffffff811115611a5b57611a5a6111a7565b5b611a658254611866565b611a708282856119ac565b600060209050601f831160018114611aa35760008415611a91578287015190505b611a9b8582611a1d565b865550611b03565b601f198416611ab186611897565b60005b82811015611ad957848901518255600182019150602085019450602081019050611ab4565b86831015611af65784890151611af2601f8916826119ff565b8355505b6001600288020188555050505b505050505050565b7f4e487b7100000000000000000000000000000000000000000000000000000000600052603260045260246000fd5b7f466163746f72793a204e6f74204f776e65720000000000000000000000000000600082015250565b6000611b706012836115fb565b9150611b7b82611b3a565b602082019050919050565b60006020820190508181036000830152611b9f81611b63565b9050919050565b600081905092915050565b50565b6000611bc1600083611ba6565b9150611bcc82611bb1565b600082019050919050565b6000611be282611bb4565b9150819050919050565b7f466163746f72793a20455448207472616e73666572206661696c656400000000600082015250565b6000611c22601c836115fb565b9150611c2d82611bec565b602082019050919050565b60006020820190508181036000830152611c5181611c15565b9050919050565b7f4e487b7100000000000000000000000000000000000000000000000000000000600052601260045260246000fd5b6000611c9282611144565b9150611c9d83611144565b925082611cad57611cac611c58565b5b828204905092915050565b6000611cc382611144565b9150611cce83611144565b9250828202611cdc81611144565b91508282048414831517611cf357611cf26117c0565b5b5092915050565b6000611d0582611144565b9150611d1083611144565b9250828201905080821115611d2857611d276117c0565b5b92915050565b7f466163746f72793a20427579696e6720636c6f73656400000000000000000000600082015250565b6000611d646016836115fb565b9150611d6f82611d2e565b602082019050919050565b60006020820190508181036000830152611d9381611d57565b9050919050565b7f466163746f72793a20496e76616c696420616d6f756e74000000000000000000600082015250565b6000611dd06017836115fb565b9150611ddb82611d9a565b602082019050919050565b60006020820190508181036000830152611dff81611dc3565b9050919050565b7f466163746f72793a20496e73756666696369656e74204554482072656365697660008201527f6564000000000000000000000000000000000000000000000000000000000000602082015250565b6000611e626022836115fb565b9150611e6d82611e06565b604082019050919050565b60006020820190508181036000830152611e9181611e55565b9050919050565b6000604082019050611ead6000830185611538565b611eba602083018461114e565b9392505050565b611eca81611472565b8114611ed557600080fd5b50565b600081519050611ee781611ec1565b92915050565b600060208284031215611f0357611f02611182565b5b6000611f1184828501611ed8565b91505092915050565b7f466163746f72793a2053616c65206e6f7420636c6f7365640000000000000000600082015250565b6000611f506018836115fb565b9150611f5b82611f1a565b602082019050919050565b60006020820190508181036000830152611f7f81611f43565b9050919050565b7f466163746f72793a204e6f7468696e6720746f206465706f7369740000000000600082015250565b6000611fbc601b836115fb565b9150611fc782611f86565b602082019050919050565b60006020820190508181036000830152611feb81611faf565b9050919050565b6000815190506120018161134a565b92915050565b60006020828403121561201d5761201c611182565b5b600061202b84828501611ff2565b9150509291505056fe608060405234801561001057600080fd5b5060405161189038038061189083398181016040528101906100329190610566565b82828160039081610043919061081c565b508060049081610053919061081c565b50505083600560006101000a81548173ffffffffffffffffffffffffffffffffffffffff021916908373ffffffffffffffffffffffffffffffffffffffff1602179055506100a733826100b060201b60201c565b505050506109dc565b600073ffffffffffffffffffffffffffffffffffffffff168273ffffffffffffffffffffffffffffffffffffffff16036101225760006040517fec442f0500000000000000000000000000000000000000000000000000000000815260040161011991906108fd565b60405180910390fd5b6101346000838361013860201b60201c565b5050565b600073ffffffffffffffffffffffffffffffffffffffff168373ffffffffffffffffffffffffffffffffffffffff160361018a57806002600082825461017e9190610947565b9250508190555061025d565b60008060008573ffffffffffffffffffffffffffffffffffffffff1673ffffffffffffffffffffffffffffffffffffffff16815260200190815260200160002054905081811015610216578381836040517fe450d38c00000000000000000000000000000000000000000000000000000000815260040161020d9392919061098a565b60405180910390fd5b8181036000808673ffffffffffffffffffffffffffffffffffffffff1673ffffffffffffffffffffffffffffffffffffffff16815260200190815260200160002081905550505b600073ffffffffffffffffffffffffffffffffffffffff168273ffffffffffffffffffffffffffffffffffffffff16036102a657806002600082825403925050819055506102f3565b806000808473ffffffffffffffffffffffffffffffffffffffff1673ffffffffffffffffffffffffffffffffffffffff168152602001908152602001600020600082825401925050819055505b8173ffffffffffffffffffffffffffffffffffffffff168373ffffffffffffffffffffffffffffffffffffffff167fddf252ad1be2c89b69c2b068fc378daa952ba7f163c4a11628f55a4df523b3ef8360405161035091906109c1565b60405180910390a3505050565b6000604051905090565b600080fd5b600080fd5b600073ffffffffffffffffffffffffffffffffffffffff82169050919050565b600061039c82610371565b9050919050565b6103ac81610391565b81146103b757600080fd5b50565b6000815190506103c9816103a3565b92915050565b600080fd5b600080fd5b6000601f19601f8301169050919050565b7f4e487b7100000000000000000000000000000000000000000000000000000000600052604160045260246000fd5b610422826103d9565b810181811067ffffffffffffffff82111715610441576104406103ea565b5b80604052505050565b600061045461035d565b90506104608282610419565b919050565b600067ffffffffffffffff8211156104805761047f6103ea565b5b610489826103d9565b9050602081019050919050565b60005b838110156104b4578082015181840152602081019050610499565b60008484015250505050565b60006104d36104ce84610465565b61044a565b9050828152602081018484840111156104ef576104ee6103d4565b5b6104fa848285610496565b509392505050565b600082601f830112610517576105166103cf565b5b81516105278482602086016104c0565b91505092915050565b6000819050919050565b61054381610530565b811461054e57600080fd5b50565b6000815190506105608161053a565b92915050565b600080600080608085870312156105805761057f610367565b5b600061058e878288016103ba565b945050602085015167ffffffffffffffff8111156105af576105ae61036c565b5b6105bb87828801610502565b935050604085015167ffffffffffffffff8111156105dc576105db61036c565b5b6105e887828801610502565b92505060606105f987828801610551565b91505092959194509250565b600081519050919050565b7f4e487b7100000000000000000000000000000000000000000000000000000000600052602260045260246000fd5b6000600282049050600182168061065757607f821691505b60208210810361066a57610669610610565b5b50919050565b60008190508160005260206000209050919050565b60006020601f8301049050919050565b600082821b905092915050565b6000600883026106d27fffffffffffffffffffffffffffffffffffffffffffffffffffffffffffffffff82610695565b6106dc8683610695565b95508019841693508086168417925050509392505050565b6000819050919050565b600061071961071461070f84610530565b6106f4565b610530565b9050919050565b6000819050919050565b610733836106fe565b61074761073f82610720565b8484546106a2565b825550505050565b600090565b61075c61074f565b61076781848461072a565b505050565b5b8181101561078b57610780600082610754565b60018101905061076d565b5050565b601f8211156107d0576107a181610670565b6107aa84610685565b810160208510156107b9578190505b6107cd6107c585610685565b83018261076c565b50505b505050565b600082821c905092915050565b60006107f3600019846008026107d5565b1980831691505092915050565b600061080c83836107e2565b9150826002028217905092915050565b61082582610605565b67ffffffffffffffff81111561083e5761083d6103ea565b5b610848825461063f565b61085382828561078f565b600060209050601f8311600181146108865760008415610874578287015190505b61087e8582610800565b8655506108e6565b601f19841661089486610670565b60005b828110156108bc57848901518255600182019150602085019450602081019050610897565b868310156108d957848901516108d5601f8916826107e2565b8355505b6001600288020188555050505b505050505050565b6108f781610391565b82525050565b600060208201905061091260008301846108ee565b92915050565b7f4e487b7100000000000000000000000000000000000000000000000000000000600052601160045260246000fd5b600061095282610530565b915061095d83610530565b925082820190508082111561097557610974610918565b5b92915050565b61098481610530565b82525050565b600060608201905061099f60008301866108ee565b6109ac602083018561097b565b6109b9604083018461097b565b949350505050565b60006020820190506109d6600083018461097b565b92915050565b610ea5806109eb6000396000f3fe608060405234801561001057600080fd5b506004361061009e5760003560e01c8063313ce56711610066578063313ce5671461015d57806370a082311461017b57806395d89b41146101ab578063a9059cbb146101c9578063dd62ed3e146101f95761009e565b806302d05d3f146100a357806306fdde03146100c1578063095ea7b3146100df57806318160ddd1461010f57806323b872dd1461012d575b600080fd5b6100ab610229565b6040516100b89190610aaa565b60405180910390f35b6100c961024f565b6040516100d69190610b55565b60405180910390f35b6100f960048036038101906100f49190610bde565b6102e1565b6040516101069190610c39565b60405180910390f35b610117610304565b6040516101249190610c63565b60405180910390f35b61014760048036038101906101429190610c7e565b61030e565b6040516101549190610c39565b60405180910390f35b61016561033d565b6040516101729190610ced565b60405180910390f35b61019560048036038101906101909190610d08565b610346565b6040516101a29190610c63565b60405180910390f35b6101b361038e565b6040516101c09190610b55565b60405180910390f35b6101e360048036038101906101de9190610bde565b610420565b6040516101f09190610c39565b60405180910390f35b610213600480360381019061020e9190610d35565b610443565b6040516102209190610c63565b60405180910390f35b600560009054906101000a900473ffffffffffffffffffffffffffffffffffffffff1681565b60606003805461025e90610da4565b80601f016020809104026020016040519081016040528092919081815260200182805461028a90610da4565b80156102d75780601f106102ac576101008083540402835291602001916102d7565b820191906000526020600020905b8154815290600101906020018083116102ba57829003601f168201915b5050505050905090565b6000806102ec6104ca565b90506102f98185856104d2565b600191505092915050565b6000600254905090565b6000806103196104ca565b90506103268582856104e4565b610331858585610579565b60019150509392505050565b60006012905090565b60008060008373ffffffffffffffffffffffffffffffffffffffff1673ffffffffffffffffffffffffffffffffffffffff168152602001908152602001600020549050919050565b60606004805461039d90610da4565b80601f01602080910402602001604051908101604052809291908181526020018280546103c990610da4565b80156104165780601f106103eb57610100808354040283529160200191610416565b820191906000526020600020905b8154815290600101906020018083116103f957829003601f168201915b5050505050905090565b60008061042b6104ca565b9050610438818585610579565b600191505092915050565b6000600160008473ffffffffffffffffffffffffffffffffffffffff1673ffffffffffffffffffffffffffffffffffffffff16815260200190815260200160002060008373ffffffffffffffffffffffffffffffffffffffff1673ffffffffffffffffffffffffffffffffffffffff16815260200190815260200160002054905092915050565b600033905090565b6104df838383600161066d565b505050565b60006104f08484610443565b90507fffffffffffffffffffffffffffffffffffffffffffffffffffffffffffffffff8110156105735781811015610563578281836040517ffb8f41b200000000000000000000000000000000000000000000000000000000815260040161055a93929190610dd5565b60405180910390fd5b6105728484848403600061066d565b5b50505050565b600073ffffffffffffffffffffffffffffffffffffffff168373ffffffffffffffffffffffffffffffffffffffff16036105eb5760006040517f96c6fd1e0000000000000000000000000000000000000000000000000000000081526004016105e29190610aaa565b60405180910390fd5b600073ffffffffffffffffffffffffffffffffffffffff168273ffffffffffffffffffffffffffffffffffffffff160361065d5760006040517fec442f050000000000000000000000000000000000000000000000000000000081526004016106549190610aaa565b60405180910390fd5b610668838383610844565b505050565b600073ffffffffffffffffffffffffffffffffffffffff168473ffffffffffffffffffffffffffffffffffffffff16036106df5760006040517fe602df050000000000000000000000000000000000000000000000000000000081526004016106d69190610aaa565b60405180910390fd5b600073ffffffffffffffffffffffffffffffffffffffff168373ffffffffffffffffffffffffffffffffffffffff16036107515760006040517f94280d620000000000000000000000000000000000000000000000000000000081526004016107489190610aaa565b60405180910390fd5b81600160008673ffffffffffffffffffffffffffffffffffffffff1673ffffffffffffffffffffffffffffffffffffffff16815260200190815260200160002060008573ffffffffffffffffffffffffffffffffffffffff1673ffffffffffffffffffffffffffffffffffffffff16815260200190815260200160002081905550801561083e578273ffffffffffffffffffffffffffffffffffffffff168473ffffffffffffffffffffffffffffffffffffffff167f8c5be1e5ebec7d5bd14f71427d1e84f3dd0314c0f7b2291e5b200ac8c7c3b925846040516108359190610c63565b60405180910390a35b50505050565b600073ffffffffffffffffffffffffffffffffffffffff168373ffffffffffffffffffffffffffffffffffffffff160361089657806002600082825461088a9190610e3b565b92505081905550610969565b60008060008573ffffffffffffffffffffffffffffffffffffffff1673ffffffffffffffffffffffffffffffffffffffff16815260200190815260200160002054905081811015610922578381836040517fe450d38c00000000000000000000000000000000000000000000000000000000815260040161091993929190610dd5565b60405180910390fd5b8181036000808673ffffffffffffffffffffffffffffffffffffffff1673ffffffffffffffffffffffffffffffffffffffff16815260200190815260200160002081905550505b600073ffffffffffffffffffffffffffffffffffffffff168273ffffffffffffffffffffffffffffffffffffffff16036109b257806002600082825403925050819055506109ff565b806000808473ffffffffffffffffffffffffffffffffffffffff1673ffffffffffffffffffffffffffffffffffffffff168152602001908152602001600020600082825401925050819055505b8173ffffffffffffffffffffffffffffffffffffffff168373ffffffffffffffffffffffffffffffffffffffff167fddf252ad1be2c89b69c2b068fc378daa952ba7f163c4a11628f55a4df523b3ef83604051610a5c9190610c63565b60405180910390a3505050565b600073ffffffffffffffffffffffffffffffffffffffff82169050919050565b6000610a9482610a69565b9050919050565b610aa481610a89565b82525050565b6000602082019050610abf6000830184610a9b565b92915050565b600081519050919050565b600082825260208201905092915050565b60005b83811015610aff578082015181840152602081019050610ae4565b60008484015250505050565b6000601f19601f8301169050919050565b6000610b2782610ac5565b610b318185610ad0565b9350610b41818560208601610ae1565b610b4a81610b0b565b840191505092915050565b60006020820190508181036000830152610b6f8184610b1c565b905092915050565b600080fd5b610b8581610a89565b8114610b9057600080fd5b50565b600081359050610ba281610b7c565b92915050565b6000819050919050565b610bbb81610ba8565b8114610bc657600080fd5b50565b600081359050610bd881610bb2565b92915050565b60008060408385031215610bf557610bf4610b77565b5b6000610c0385828601610b93565b9250506020610c1485828601610bc9565b9150509250929050565b60008115159050919050565b610c3381610c1e565b82525050565b6000602082019050610c4e6000830184610c2a565b92915050565b610c5d81610ba8565b82525050565b6000602082019050610c786000830184610c54565b92915050565b600080600060608486031215610c9757610c96610b77565b5b6000610ca586828701610b93565b9350506020610cb686828701610b93565b9250506040610cc786828701610bc9565b9150509250925092565b600060ff82169050919050565b610ce781610cd1565b82525050565b6000602082019050610d026000830184610cde565b92915050565b600060208284031215610d1e57610d1d610b77565b5b6000610d2c84828501610b93565b91505092915050565b60008060408385031215610d4c57610d4b610b77565b5b6000610d5a85828601610b93565b9250506020610d6b85828601610b93565b9150509250929050565b7f4e487b7100000000000000000000000000000000000000000000000000000000600052602260045260246000fd5b60006002820490506001821680610dbc57607f821691505b602082108103610dcf57610dce610d75565b5b50919050565b6000606082019050610dea6000830186610a9b565b610df76020830185610c54565b610e046040830184610c54565b949350505050565b7f4e487b7100000000000000000000000000000000000000000000000000000000600052601160045260246000fd5b6000610e4682610ba8565b9150610e5183610ba8565b9250828201905080821115610e6957610e68610e0c565b5b9291505056fea264697066735822122035f4be0860bae9a42907dca7488784a804e89681b0670218dc8721f9c2de0af564736f6c634300081b0033a2646970667358221220a2b39e7a01c7b28edec6edad8fecb0485555850ff0cb86d9b0985be80269697764736f6c634300081b0033",
  "linkReferences": {},
  "deployedLinkReferences": {}
}